:1000000000400020130200009D0300009D0300003B
:1000100039030000390300003903000039030000F0
:100020003903000039030000390300009D0300007C
:1000300039030000390300009D0300009D03000008
:100040009D0300009D0300009D0300009D03000030
:100050009D030000390300009D0300009D03000084
:100060009D0300009D0300009D0300009D03000010
:100070009D0300009D0300009D0300009D03000000
:100080009D0300009D0300009D0300009D030000F0
:100090009D0300009D0300009D0300009D030000E0
:1000A0009D0300009D030000390300003903000098
:1000B0003903000039030000390300003903000050
:1000C00080B584B000AF78607B685B00FB6005E0C2
:1000D000C046C046C046FB68013BFB60FB68002B86
:1000E000F6D1C046BD4604B080BD80B584B000AF37
:1000F0007860396010E00023FB600AE00B4A7B68FF
:100100001B6813600A4B1800FFF7DAFFFB68013326
:10011000FB60FB68022BF1DD3B685A1E3A60002B46
:10012000E9DCC046BD4604B080BDC04604050050B1
:100130008813000080B582B000AF786007E0084BFC
:10014000E02212021A60074B1800FFF7B9FF7B6824
:100150005A1E7A60002BF2DCC046BD4602B080BD5C
:10016000040500508813000080B584B000AF7860AB
:10017000396013E00023FB600DE0FB689B003A68E8
:10018000D3180B4A1B6813600A4B1800FFF798FF3F
:10019000FB680133FB60FB68022BEEDD7B685A1EB7
:1001A0007A60002BE6DCC046BD4604B080BDC04688
:1001B000040500508813000080B500AF0B4B0C4ABB
:1001C0001A600C4B00221A600B4B00221A600722A7
:1001D0000A4B1B68D2180A4B1A600A4AFA235B00C2
:1001E00011001800FFF7C0FFF7E7C04614050050E4
:1001F000F0FF000044070050680700500000002096
:1002000008000020B803000080B500AFC046BD461E
:1002100080BD80B582B000AF154B1A68144B032126
:100220000A431A60134B7B60134B3B6007E03A684C
:10023000131D3B607B68191D796012681A607A682B
:100240000E4B9A42F3D30E4B7B6004E07B681A1D81
:100250007A6000221A607A680A4B9A42F6D3FFF756
:10026000D3FFFFF7A9FFFFF7CFFF20BFFDE7C04691
:100270001405004000000020C40300000800002016
:10028000080000200C00002080B582B000AF78602C
:1002900039607B68002B24DA7B6808339B109B0055
:1002A000234A944663441B687A68D200FF21914038
:1002B0000A0003210A40D2431A4011003B68FF2282
:1002C0001A407B68DB009A40130003221A407B68C7
:1002D00008339B109B001648844663440A431A6007
:1002E00021E07B689B109B00124A944663441B6884
:1002F0007A68D200FF2191400A0003210A40D243CC
:100300001A4011003B68FF221A407B68DB009A40CC
:10031000130003221A407B689B109B00054884460B
:1003200063440A431A60C046BD4602B080BDC04661
:100330001CED00E000E400E080B582B000AF72B6D2
:10034000114B124A1A60124B8022D2011A60114BD3
:100350007B6005E0C046C046C0467B68013B7B60D1
:100360007B68002BF6DC0A4B00221A600A4B7B608C
:1003700005E0C046C046C0467B68013B7B607B68A9
:10038000002BF6DCDFE7C04614050050F0FF00004C
:100390000405005040420F00400D030080B500AF3F
:1003A000FFF7CAFFC046BD4680BDC046070000003B
:1003B00000F00000FFEF0000C0270000105B00000D
:0403C000209F00007A
:0803C400080000000800000021
:00000001FF
