:10000000005000202900000080B500AF0722044BFB
:100010001B68D218034B1A60C046BD4680BDC0465F
:10002000000000200400002080B586B000AF154B12
:100030007B61154BBB6005E07B6900221A607B6920
:1000400004337B617A69BB689A42F5D10F4B3B61FF
:100050000F4BFB600F4B7B6009E03B691A68FB6844
:100060001A60FB680433FB603B6904333B61FA6848
:100070007B689A42F1D1FFF7C7FFC046BD4606B084
:1000800080BDC04604000020080000209C00000045
:08009000000000200400002024
:04009800070000005D
:04009C000800000058
:00000001FF
